:020000040800F2
:10000000800F002031020008230C00081B0C0008A0
:100010001F0C0008E50400089B1100080000000008
:10002000000000000000000000000000FD0D0008BE
:10003000430B000800000000B10C00084902000852
:100040004B0200084B0200084B0200084B0200085C
:100050004B0200084B0200084B0200084B0200084C
:100060004B0200084B0200084B0200084B0200083C
:100070004B0200084B0200084B0200084B0200082C
:100080004B0200084B0200084B0200084B0200081C
:10009000E90400084B0200084B0200084B0200086C
:1000A0004B0200084B0200084B0200084B020008FC
:1000B0004B0200084B0200084B0200084B020008EC
:1000C0004B0200084B0200084B0200084B020008DC
:1000D0004B0200084B0200084B0200084B020008CC
:1000E0004B0200084B0200084B0200084B020008BC
:1000F0004B0200084B0200084B0200084B020008AC
:100100004B0200084B0200084B0200084B0200089B
:100110004B0200087D0F00084B0200084B0200084C
:100120004B0200084B0200084B0200084B0200087B
:100130004B0200084B0200084B0200084B0200086B
:100140004B0200084B0200084B0200084B0200085B
:100150004B0200084B0200084B0200084B0200084B
:100160004B0200084B0200084B0200084B0200083B
:100170004B0200084B0200084B0200084B0200082B
:100180004B0200084B02000800F002F800F041F8B2
:100190000AA090E8000C82448344AAF10107DA45E2
:1001A00001D100F036F8AFF2090EBAE80F0013F0F3
:1001B000010F18BFFB1A43F0010318477815000020
:1001C00098150000103A24BF78C878C1FAD85207B1
:1001D00024BF30C830C144BF04680C6070470000C1
:1001E0000023002400250026103A28BF78C1FBD840
:1001F000520728BF30C148BF0B607047642900F028
:100200007980002070471FB501F08EFA1FBD10B530
:1002100010BD00F037F91146FFF7F5FF01F074F952
:1002200000F055F903B4FFF7F2FF03BC00F0B7FF8D
:100230000948804709480047FEE7FEE7FEE7FEE77A
:10024000FEE7FEE7FEE7FEE7FEE7FEE704480549B6
:10025000054A064B70470000150F00088901000889
:1002600080090020800F0020800B0020800B0020E0
:10027000704700000FB4044910B503AA029800F0BB
:10028000D3F810BC5DF814FB140000202DE9F041F8
:100290000E460446002020622046E168884730B3BD
:1002A000252805D0D4E901219047206A401CF2E7B7
:1002B000E168204600278847050018D0A5F14100D5
:1002C000192802D820354FF40067324629462046C7
:1002D0002760FFF793FF40B1012804D0F61D26F0F8
:1002E00007060836D8E7361DD6E72846DAE7206A3B
:1002F000BDE8F0812DE9F04106460024106875291B
:10030000314616A510D0AFF30080002802DA404233
:1003100013A507E031688A0701D512A502E0490755
:1003200004D511A5012401E0AFF3008000210A22C9
:1003300006F1240709E0B0FBF2FCB0FBF2F302FB8C
:100340001C00303078541846491C0028F3D123464D
:100350002A463046BDE8F04100F00CB8000000002D
:100360002D0000002B0000002000000070477047A7
:10037000704770472DE9F0470D469946924604466E
:1003800000F124080168880604D5E06921F0100115
:10039000216000E00120A84201DD471B00E00027AA
:1003A000A1697A1902EB0900081AA0612078C00639
:1003B00002D42046AFF30080002608E0D4E90121F2
:1003C0001AF806009047206A401C761C20624E45B1
:1003D000F4DB2078C0060AD52046AFF3008006E0A3
:1003E000D4E9012130209047206A401C2062381E49
:1003F000A7F10107F4DC07E0D4E9012118F80500B2
:100400009047206A401C2062281EA5F10105F3DCFC
:100410002046AFF300802078000602D50220BDE818
:10042000F0870120FBE70000074B70B50D467B44C9
:1004300000F011F80446284600F020F810B14FF003
:10044000FF3070BD204670BDBB10000001694A1C22
:1004500002610878704700B58FB0CDE90131002105
:10046000059105497944CDE9031011466846FFF727
:100470000DFF0FB000BD0000E5FFFFFF007B00F0A7
:1004800080007047754600F029F8AE4605006946C1
:10049000534620F00700854618B020B5FFF7D6FE7A
:1004A000BDE820404FF000064FF000074FF0000875
:1004B0004FF0000B21F00701AC46ACE8C009ACE8F6
:1004C000C009ACE8C009ACE8C0098D4670470446D5
:1004D000AFF300802046FFF7A5FE000000487047FC
:1004E0002009002000BFFEE710B502210E4800F0F1
:1004F00091F8B8B10D4A00210B4800F0AEF90B4855
:1005000000680B4901EBC000406838B1074800683B
:100510000A4602EBC00041680448884702210248AD
:1005200000F008F810BD000000640040E400002066
:10053000F8000020B1F5007F3AD00FDC202928D048
:1005400006DC01291CD004291DD0082940D11DE05A
:10055000402921D0B1F5807F3AD126E0B1F5004F96
:1005600031D006DCB1F5806F25D0B1F5006F2FD109
:1005700024E0B1F5803F12D0B1F5003F28D111E061
:10058000154A826025E00822C26022E01022C26083
:100590001FE0082202611CE01022026119E008221B
:1005A000426016E01022426013E00422426010E034
:1005B000042242600DE0042242600AE000228261CF
:1005C0000422426005E0002282610422426000E0D1
:1005D00000BF00BF704700000101010010B50446D4
:1005E0000B48844209D10121480600F083FB002119
:1005F0004FF0007000F07EFB08E00121880600F05B
:1006000079FB00214FF0806000F074FB10BD00000A
:100610000064004070B504460D460026606928401D
:10062000002871D0B5F5807F5CD010DC082D35D066
:1006300006DC012D20D0022D24D0042D72D127E01C
:10064000102D31D0202D35D0402D6BD138E0B5F5AF
:10065000004F60D009DCB5F5007F49D0B5F5806F5B
:100660004CD0B5F5006F5DD14FE0B5F5803F2DD092
:10067000B5F5003F56D12FE0A0682D4900F058FA9B
:10068000064651E0E068032100F052FA06464BE0CE
:10069000E068082100F04CFA064645E0E0681021C9
:1006A00000F046FA06463FE02069032100F040FAD8
:1006B000064639E02069082100F03AFA064633E0A0
:1006C0002069102100F034FA06462DE06068082108
:1006D00000F02EFA064627E06068102100F028FAA4
:1006E000064621E0A069012100F022FA06461BE03F
:1006F000A069022100F01CFA064615E0A069042159
:1007000000F016FA06460FE00FE0A069702100F035
:100710000FFA064608E06068042100F009FA064670
:1007200002E0FFE7002600BF00E00026304670BD73
:10073000010101001AB143690B43436102E04369BF
:100740008B434361704730B5024600200023146894
:1007500024F002041460146844F00104146000E002
:100760005B1C546804F001041CB94FF6FF74A342EB
:10077000F6D1546804F001040CB900206CE08C79C7
:10078000012C04D1146844F08004146003E0146860
:1007900024F080041460CC79012C04D1146844F056
:1007A0004004146003E0146824F0400414600C7AE0
:1007B000012C04D1146844F02004146003E0146890
:1007C00024F0200414604C7A012C04D1146844F005
:1007D0001004146003E0146824F0100414608C7A90
:1007E000012C04D1146844F00804146003E0146878
:1007F00024F008041460CC7A012C04D1146844F06D
:100800000404146003E0146824F0040414608C7879
:10081000A407CD7844EA05640D7944EA05444D798E
:1008200044EA05540D886D1E2C43D461146824F0ED
:1008300001041460002300E05B1C546804F0010410
:100840001CB14FF6FF74A342F6D1546804F00104C2
:100850000CB1002000E0012030BD10B500F5D873C8
:1008600003EB01131B6803F004031372137A53B9EB
:1008700000F5D87303EB01131B6840F2FF7404EA20
:100880005353136009E000F5D87303EB01131B68A1
:100890006FF0604404EAD303536000F5D87303EBB0
:1008A00001131B6803F00203537200F5D87303EBC6
:1008B00001135B6803F00F03937200F5D87303EB29
:1008C00001135B681B0AD37400F5D87303EB0113A3
:1008D0009B68D37200F5D87303EB01139B681C0A65
:1008E000147300F5D87303EB01139B681C0C54734D
:1008F00000F5D87303EB01139B681B0E937300F58F
:10090000D87303EB0113DB68D37300F5D87303EBE3
:100910000113DB681C0A147400F5D87303EB011390
:10092000DB681C0C547400F5D87303EB0113DB680F
:100930001B0E937421B9C36843F02003C36003E026
:10094000036943F02003036110BD00218171C1716F
:10095000017241728172C1728170C1700321017193
:100960000221417101210180704710B5024600202B
:10097000936803F08063B3F1806F00D110E0936857
:1009800003F00063B3F1006F01D1012008E0936828
:1009900003F08053B3F1805F01D1022000E0042016
:1009A000042874D002F5C07303EB00131B6803F036
:1009B000010402F5C07303EB00131C600B7A7BB9D2
:1009C0004B7A0C8843EA445302F5C07404EB0014DC
:1009D0002468234302F5C07404EB0014236010E084
:1009E0000B7A4C6843EAC4034C7A234302F5C07483
:1009F00004EB00142468234302F5C07404EB0014D4
:100A000023608B7A03F00F038B7202F5C07303EB44
:100A100000135B6823F00F0402F5C07303EB0013AF
:100A20005C6002F5C07303EB00135B688C7A2343B0
:100A300002F5C07404EB001463608B7B1C064B7BD7
:100A400044EA03440B7B44EA0323CC7A234302F5B4
:100A5000C07404EB0014A3608B7C1C064B7C44EA3E
:100A600003440B7C44EA0323CC7B234302F5C0748C
:100A700004EB0014E36002F5C07303EB00131B6882
:100A800043F0010402F5C07303EB00131C6010BDBA
:100A900010B50246002321B1012907D002290FD148
:100AA00009E090681D4C00EA04030BE090681C4CC0
:100AB00000EA040306E090681A4C00EA040301E02F
:100AC000002300BF00BF184C181BA34216D007DC40
:100AD00083B16FF08060184470B1022818D111E022
:100AE000B0F5007F10D0114C204448B1B0F5003F64
:100AF0000ED10BE002230DE000230BE0002309E000
:100B0000002307E0012305E0012303E0012301E0C6
:100B1000002300BF00BFD8B210BD000003000004D6
:100B20000003000800000310000100080001FFF7A7
:100B30000246002002EA01030BB1012000E0002080
:100B400070477047F0B50A4600210023002400BF1B
:100B50003DE0012505FA01F3156805EA03049C420E
:100B600034D105684F000326BE40B54305601579B2
:100B70004E00B5400668354305601579012D02D059
:100B80001579022D16D185684F000326BE40B54366
:100B9000856055794E00B540866835438560456867
:100BA00001268E40B5434560456896798E40B6B2C1
:100BB00035434560C5684F000326BE40B543C56058
:100BC000D5794E00B540C6683543C560491C10292B
:100BD000BFD3F0BDF0B5002300244D07ED0E02FA9F
:100BE00005F3CE1000F1200555F826504E07F70EFC
:100BF0000F26BE40B543CF1000F1200646F827501F
:100C0000CE1000F1200555F8265045EA0304CE1019
:100C100000F1200545F82640F0BD00BFFEE700BF0B
:100C2000FEE7704770B5002100230F22C4781CB383
:100C3000174C246804F4E064C4F5E064C4F30721AD
:100C4000C1F10404E3B20A4144789C40E1B28478E3
:100C5000144021430C07210E0E4C05786155047891
:100C600004F01F050124AC4005786D11AD0005F1BD
:100C7000E025C5F8004109E0047804F01F050124CF
:100C8000AC40054D0678761145F8264070BD000051
:100C90000CED00E000E400E080E100E002490143E7
:100CA000024A1160704700000000FA050CED00E0F8
:100CB0007047000029B1064A12680243044B1A60CB
:100CC00004E0034A12688243014B1A607047000037
:100CD0003038024029B1064A12680243044B1A60B8
:100CE00004E0034A12688243014B1A607047000017
:100CF0004038024029B1064A12680243044B1A6088
:100D000004E0034A12688243014B1A6070470000F6
:100D100020380240F0B500210022002402250026E0
:100D20000223324F3F6807F00C0121B1042905D09E
:100D3000082937D105E02E4F076036E02D4F0760B8
:100D400033E02A4F3F1F3F68C7F38056274F3F1FAE
:100D50003F6807F03F036EB1264FB7FBF3F7DFF8AC
:100D60008CC0ACF1040CDCF800C0CCF3881C07FB91
:100D70000CF40CE01E4FB7FBF3F7DFF870C0ACF1DA
:100D8000040CDCF800C0CCF3881C07FB0CF4174FF4
:100D90003F1F3F68C7F301477F1C7D00B4FBF5F799
:100DA000076002E0124F076000BF00BF0F4F3F68AF
:100DB00007F0F0010909104F7A5C0768D7404760D7
:100DC0000A4F3F6807F4E051890A0B4F7A5C476885
:100DD000D7408760054F3F6807F46041490B064FD5
:100DE0007A5C4768D740C760F0BD00000838024011
:100DF0000024F40000127A00000000207047000078
:100E00000CB50020019000903448006840F4803018
:100E10003249086000BF3148006800F4003000909B
:100E20000198401C0190009818B90198B0F5A04FA6
:100E3000F1D12A48006800F4003010B10120009080
:100E400001E0002000900098012846D1234840305E
:100E5000006840F080502149403108602048006817
:100E600040F440401E4908601C48083000681B4997
:100E7000083108600846006840F4004008600846F1
:100E8000006840F4A05008601648091F0860081F59
:100E9000006840F08070091F086000BF0F480068BC
:100EA00000F000700028F9D040F205700E4908608B
:100EB0000A480830006820F003000849083108603B
:100EC0000846006840F00200086000BF0348083090
:100ED000006800F00C000828F8D10CBD0038024072
:100EE0000070004008544007003C0240042808D12C
:100EF0004FF0E021096941F004014FF0E022116157
:100F000007E04FF0E021096921F004014FF0E022F1
:100F10001161704710B51548006840F4700013491E
:100F200008601348006840F0010011490860002083
:100F30000F49083108600E4800680E4908400C4906
:100F400008600D48091D0860081F006820F4802013
:100F5000091F0860002006490C310860FFF750FFA8
:100F60004FF0006001498039086010BD88ED00E055
:100F700000380240FFFFF6FE1030002410B540F2AA
:100F800025511D4800F04AF810B31B4800F000F945
:100F9000C4B21A48008800F40040C8B91748008855
:100FA00000F4804060B10A2C03D00020134908806F
:100FB00020E01248008840F400401049088019E001
:100FC0000D2C06D10D48008840F480400B49088064
:100FD00010E00A480088C0F30D0009490C54074886
:100FE0000088401C0549088008460088C72801DDA4
:100FF0000020088010BD00000050004018000020B4
:101000001C00002021B1828942F40052828104E058
:1010100082894DF6FF731A408281704770B502468F
:10102000002400230025002040F66A16B14200D1BA
:1010300000BFC1F3421501F01F03012606FA03F3B6
:10104000012D02D19689334006E0022D02D1168A85
:10105000334001E0968A33400C12012606FA04F46C
:101060001688344013B10CB1012000E0002070BD9F
:10107000F0B50346002400260025002040F66A173C
:10108000B94200D100BF1846C1F3421401F01F0657
:10109000012707FA06F5012C01D10C3004E0022CDF
:1010A00001D1103000E014301AB107682F430760F7
:1010B00002E00768AF430760F0BD00002DE9FF477D
:1010C00005460E460024A14600BFA046B08900B1E7
:1010D00000BF2C8A24F44054F08804432C82AC894D
:1010E00041F20C608443B088318908437189084318
:1010F0000443AC81AC8A24F44074B0890443AC82CC
:101100006846FFF707FE2048854202D01F48854207
:1011100002D1DDF80C9001E0DDF80890A88900F418
:10112000004040B109EBC90000EB091031684900EB
:10113000B0FBF1F707E009EBC90000EB09103168DB
:101140008900B0FBF1F76420B7FBF0F0040120093F
:10115000642101FB1078A88900F4004040B13220DE
:1011600000EBC800B0FBF1F000F00700044308E01A
:10117000322000EB08106421B0FBF1F000F00F000A
:1011800004432C81BDE8FF8700100140001401409A
:1011900001468888C0F30800704700BFFEE701469B
:1011A00000BF70470246074800EBC200406810B11C
:1011B0004FF0FF307047034800EBC2004160012050
:1011C000F8E70000F80000201CB502208DF80400AC
:1011D00003208DF8050000208DF8060001208DF811
:1011E00007004FF4C050009069460748FFF7AAFC7B
:1011F00009220B210448FFF7EDFC09220C210248CB
:10120000FFF7E8FC1CBD0000000002403EB500F006
:10121000A0F8FFF7D9FF4448FFF7E0F96846FFF769
:1012200094FB00208DF806008DF808008DF807006B
:101230008DF809008DF80A0001208DF80B008DF85B
:10124000020000208DF8030008208DF80400032020
:101250008DF80500ADF8000069463348FFF773FAD2
:101260003248006840F001003049086008460068D4
:1012700020F47C5008600846006840F46060086014
:10128000081D006820F48040091D086027480C30C4
:10129000006840F4804025490C3108600020234953
:1012A0001431086021481C30006820F001001F49FB
:1012B0001C3108601D484030006800201B49403147
:1012C0000860081D00680021184844300160001FB4
:1012D0000068164940310860081D0068091D086053
:1012E00012481C30006840F0010010491C310860B1
:1012F0000E48006820F001000C490860012202211C
:101300000948FFF717FA002407E0094901F83440BB
:10131000002001EBC4014860641CFF2CF5DD00F0E7
:1013200009F801203EBD0000006400400066004056
:10133000F800002008B514208DF8000001208DF879
:1013400001008DF802008DF803006846FFF76AFC83
:1013500008BD10B501210846FFF7ACFC0121480685
:10136000FFF7B8FC10BD000070B50446002600254C
:10137000A67AA17A0BA0FEF77DFF06F130000C499A
:10138000088000BF07E004F10B00415D084A681CBB
:1013900022F81010C5B2B542F5DB4FF40040054904
:1013A000088070BD4C656E3A25640D0A000000008F
:1013B000F8080020180000202DE9F04186B007460B
:1013C000884615460024019700208DF80C008DF802
:1013D0000D008DF80E5000BF06E018F804100DF156
:1013E0000F000155601C84B2AC42F6DB01A90E4827
:1013F000FFF7BBFA0646002401E0601C84B23146C8
:101400000948FFF745FB18B940F6FF708442F4DB4A
:1014100040F6FF70844204DB4FF0FF3006B0BDE8B9
:10142000F0810120FAE700000064004010B5044696
:101430006FF00400FFF75AFDE11704EB5171C1F39F
:10144000C701074A11701046007800EB4001C1EB5C
:10145000C0104FF6FF7101EAC0000249088010BDBC
:10146000100000201200002070B504464FF40770F1
:1014700094FBF0F0C6B24FF4077094FBF0F100FB60
:10148000114085B205E04FF4077000F009F8701EB6
:10149000C6B2002EF7D115B1284600F001F870BD94
:1014A0000146114A12884A434FF0E0235A61002254
:1014B0009A611A46126942F001021A6100BF4FF0A8
:1014C000E022106900F001021AB100F48032002A13
:1014D000F5D04FF0E022126922F001024FF0E02334
:1014E0001A6100229A6170471200002000BF054A6D
:1014F000128802F04002002AF9D0C2B2014B9A8051
:1015000070470000005000400EB500240026002760
:1015100000254FF4A060FFF7C1FBA820FFF786FF6E
:101520004FF4E13000F092F8FFF770FE2E491220E0
:10153000FFF738FE00BF05E0601CC0B20DF80400E4
:10154000601CC4B2052CF7DB61208DF8000062201E
:101550008DF8010063208DF8020064208DF80300EF
:1015600065208DF8040021A0FEF784FE20A0FEF780
:1015700081FE00202149088035E02048008800F4E1
:101580000040C0B11E480088303887B21DA0FEF769
:1015900071FE012506E01A4830F815001E498880C2
:1015A000681CC5B2BD42F6DD10A0FEF763FE002048
:1015B0001249088017E0642096FBF0F100FB1160EF
:1015C00060B9052269461220FFF7F6FE18B113A094
:1015D000FEF750FE02E017A0FEF74CFE701C86B22C
:1015E0000A20FFF741FFC8E7691300080D0A000051
:1015F000546573745F63616E0D0A0000180000206B
:10160000F80800200D0A52656365697665642064F8
:101610006174613A00000000005000400D0A5375EB
:10162000636365737320746F2073656E64210D0AA4
:10163000000000000D0A4661696C75726520746FC8
:101640002073656E642E2E2E0D0A000010B588B032
:10165000044601210420FFF72DFB01210820FFF79C
:1016600029FB01210805FFF735FB08220C212B4837
:10167000FFF7B0FA082202212948FFF7ABFA4FF42E
:101680008050069002208DF81C008DF81D0000206F
:101690008DF81E0001208DF81F0006A91F48FFF7D6
:1016A00051FA0420069002208DF81C008DF81D00D0
:1016B00000208DF81E0001208DF81F0006A9184893
:1016C000FFF740FA02940020ADF80C00ADF80E00D0
:1016D000ADF81000ADF814000C20ADF8120002A90E
:1016E0001048FFF7EBFC01210E48FFF78BFC0122AD
:1016F00040F225510B48FFF7BBFC35208DF8040064
:1017000003208DF805008DF8060001208DF80700F4
:1017100001A8FFF787FA08B010BD000000080240DA
:10172000000C0240005000404FF04070E1EE100A03
:101730007047000054170008000000201C00000043
:10174000C4010008701700081C000020640F00008E
:10175000E00100080000000001020304010203048C
:10176000060708090000000000000000000000005B
:040000050800018965
:00000001FF
