:020000040800F2
:100000006013002031020008B1090008A9090008A6
:10001000AD090008390400082B0F0008000000009B
:100020000000000000000000000000008D0B000830
:10003000D108000800000000410A00084902000839
:100040004B0200084B0200084B0200084B0200085C
:100050004B0200084B0200084B0200084B0200084C
:100060004B0200084B0200084B0200084B0200083C
:100070004B0200084B0200084B0200084B0200082C
:100080004B0200084B0200084B0200084B0200081C
:100090003D0400084B0200084B0200084B02000818
:1000A0004B0200084B0200084B0200084B020008FC
:1000B0004B0200084B0200084B0200084B020008EC
:1000C0004B0200084B0200084B0200084B020008DC
:1000D0004B0200084B0200084B0200084B020008CC
:1000E0004B0200084B0200084B0200084B020008BC
:1000F0004B0200084B0200084B0200084B020008AC
:100100004B0200084B0200084B0200084B0200089B
:100110004B0200080D0D00084B0200084B020008BE
:100120004B0200084B0200084B0200084B0200087B
:100130004B0200084B0200084B0200084B0200086B
:100140004B0200084B0200084B0200084B0200085B
:100150004B0200084B0200084B0200084B0200084B
:100160004B0200084B0200084B0200084B0200083B
:100170004B0200084B0200084B0200084B0200082B
:100180004B0200084B02000800F002F800F041F8B2
:100190000AA090E8000C82448344AAF10107DA45E2
:1001A00001D100F036F8AFF2090EBAE80F0013F0F3
:1001B000010F18BFFB1A43F001031847CC110000D0
:1001C000EC110000103A24BF78C878C1FAD8520761
:1001D00024BF30C830C144BF04680C6070470000C1
:1001E0000023002400250026103A28BF78C1FBD840
:1001F000520728BF30C148BF0B607047632900F029
:10020000B080002070471FB501F0B8F81FBD10B5D1
:1002100010BD00F0E1F81146FFF7F5FF00F0B8FF60
:1002200000F0FFF803B4FFF7F2FF03BC00F07FFE1D
:100230000948804709480047FEE7FEE7FEE7FEE77A
:10024000FEE7FEE7FEE7FEE7FEE7FEE704480549B6
:10025000054A064B70470000A50C000889010008FC
:10026000600D002060130020600F0020600F002050
:10027000704700000FB4044910B503AA029800F0BB
:100280007DF810BC5DF814FB140000202DE9F0414E
:100290000E460446002020622046E168884730B3BD
:1002A000252805D0D4E901219047206A401CF2E7B7
:1002B000E168204600278847050018D0A5F14100D5
:1002C000192802D820354FF40067324629462046C7
:1002D0002760FFF793FF40B1012804D0F61D26F0F8
:1002E00007060836D8E7361DD6E72846DAE7206A3B
:1002F000BDE8F08170B50C460546012A05D0287886
:10030000800600D5EA69002302E0012305E05B1CBA
:10031000934202D2E05C0028F9D1A869E618C01A1D
:10032000A861286A184428622846AFF3008004E0D8
:10033000D5E9012114F8010B9047B442F8D32846BF
:10034000AFF3008070BD704770477047704710B5BD
:10035000436913B1AFF3008001E0FFF7CBFF012049
:1003600010BD127800F124010A7000224A700122A7
:10037000EDE711684FF0FF32E9E70000074B70B579
:100380000D467B4400F011F80446284600F020F8A2
:1003900010B14FF0FF3070BD204670BDEF0D000072
:1003A00001694A1C02610878704700B58FB0CDE939
:1003B00001310021059105497944CDE90310114629
:1003C0006846FFF763FF0FB000BD0000E5FFFFFFC9
:1003D000007B00F080007047754600F029F8AE46BB
:1003E00005006946534620F00700854618B020B541
:1003F000FFF72CFFBDE820404FF000064FF000074C
:100400004FF000084FF0000B21F00701AC46ACE8BC
:10041000C009ACE8C009ACE8C009ACE8C0098D4629
:1004200070470446AFF300802046FFF7FBFE000054
:1004300000487047FC0C002000BFFEE710B5022109
:100440000E4800F091F8B8B10D4A00210B4800F0B9
:10045000AEF90B4800680B4901EBC000406838B1A9
:10046000074800680A4602EBC00041680448884714
:100470000221024800F008F810BD000000640040AE
:10048000EC00002000010020B1F5007F3AD00FDC25
:10049000202928D006DC01291CD004291DD00829D8
:1004A00040D11DE0402921D0B1F5807F3AD126E02E
:1004B000B1F5004F31D006DCB1F5806F25D0B1F534
:1004C000006F2FD124E0B1F5803F12D0B1F5003F8D
:1004D00028D111E0154A826025E00822C26022E09E
:1004E0001022C2601FE0082202611CE0102202619B
:1004F00019E00822426016E01022426013E0042254
:10050000426010E0042242600DE0042242600AE0F2
:10051000002282610422426005E0002282610422FE
:10052000426000E000BF00BF704700000101010011
:1005300010B504460B48844209D10121480600F059
:10054000A1FA00214FF0007000F09CFA08E00121B0
:10055000880600F097FA00214FF0806000F092FAD0
:1005600010BD00000064004070B504460D46002632
:1005700060692840002871D0B5F5807F5CD010DC20
:10058000082D35D006DC012D20D0022D24D0042DDD
:1005900072D127E0102D31D0202D35D0402D6BD1D8
:1005A00038E0B5F5004F60D009DCB5F5007F49D0E3
:1005B000B5F5806F4CD0B5F5006F5DD14FE0B5F566
:1005C000803F2DD0B5F5003F56D12FE0A0682D49D2
:1005D00000F075F9064651E0E068032100F06FF97C
:1005E00006464BE0E068082100F069F9064645E060
:1005F000E068102100F063F906463FE0206903211E
:1006000000F05DF9064639E02069082100F057F94D
:10061000064633E02069102100F051F906462DE02E
:100620006068082100F04BF9064627E06068102159
:1006300000F045F9064621E0A069012100F03FF9EC
:1006400006461BE0A069022100F039F9064615E0D4
:10065000A069042100F033F906460FE00FE0A0691D
:10066000702100F02CF9064608E06068042100F0D3
:1006700026F9064602E0FFE7002600BF00E000265C
:10068000304670BD010101001AB143690B4343615B
:1006900002E043698B434361704730B50246002056
:1006A0000023146824F002041460146844F0010468
:1006B000146000E05B1C546804F001041CB94FF6A0
:1006C000FF74A342F6D1546804F001040CB9002071
:1006D0006CE08C79012C04D1146844F0800414601F
:1006E00003E0146824F080041460CC79012C04D158
:1006F000146844F04004146003E0146824F04004DB
:1007000014600C7A012C04D1146844F020041460A5
:1007100003E0146824F0200414604C7A012C04D106
:10072000146844F01004146003E0146824F010040A
:1007300014608C7A012C04D1146844F0080414600D
:1007400003E0146824F008041460CC7A012C04D16E
:10075000146844F00404146003E0146824F00404F2
:1007600014608C78A407CD7844EA05640D7944EAD6
:1007700005444D7944EA05540D886D1E2C43D4611F
:10078000146824F001041460002300E05B1C54682A
:1007900004F001041CB14FF6FF74A342F6D1546873
:1007A00004F001040CB1002000E0012030BD10B5C0
:1007B00000F5D87303EB01131B6803F004031372F5
:1007C000137A53B900F5D87303EB01131B6840F299
:1007D000FF7404EA5353136009E000F5D87303EB88
:1007E00001131B686FF0604404EAD303536000F503
:1007F000D87303EB01131B6803F00203537200F577
:10080000D87303EB01135B6803F00F03937200F5D9
:10081000D87303EB01135B681B0AD37400F5D8731C
:1008200003EB01139B68D37200F5D87303EB01133C
:100830009B681C0A147300F5D87303EB01139B68C3
:100840001C0C547300F5D87303EB01139B681B0E4B
:10085000937300F5D87303EB0113DB68D37300F5D2
:10086000D87303EB0113DB681C0A147400F5D8730A
:1008700003EB0113DB681C0C547400F5D87303EB15
:100880000113DB681B0E937421B9C36843F0200386
:10089000C36003E0036943F02003036110BD00213E
:1008A0008171C171017241728172C1728170C170B6
:1008B000032101710221417101210180704702462B
:1008C000002002EA01030BB1012000E00020704784
:1008D0007047F0B50A4600210023002400BF3DE028
:1008E000012505FA01F3156805EA03049C4234D199
:1008F00005684F000326BE40B543056015794E00DC
:10090000B5400668354305601579012D02D015798B
:10091000022D16D185684F000326BE40B543856081
:1009200055794E00B5408668354385604568012697
:100930008E40B5434560456896798E40B6B23543E2
:100940004560C5684F000326BE40B543C560D579F4
:100950004E00B540C6683543C560491C1029BFD359
:10096000F0BDF0B5002300244D07ED0E02FA05F3AB
:10097000CE1000F1200555F826504E07F70E0F2631
:10098000BE40B543CF1000F1200646F82750CE10E8
:1009900000F1200555F8265045EA0304CE1000F179
:1009A000200545F82640F0BD00BFFEE700BFFEE78A
:1009B0007047000070B5002100230F22C4781CB3DB
:1009C000174C246804F4E064C4F5E064C4F3072120
:1009D000C1F10404E3B20A4144789C40E1B2847856
:1009E000144021430C07210E0E4C05786155047804
:1009F00004F01F050124AC4005786D11AD0005F130
:100A0000E025C5F8004109E0047804F01F05012441
:100A1000AC40054D0678761145F8264070BD0000C3
:100A20000CED00E000E400E080E100E00249014359
:100A3000024A1160704700000000FA050CED00E06A
:100A40007047000029B1064A12680243044B1A603D
:100A500004E0034A12688243014B1A6070470000A9
:100A60003038024029B1064A12680243044B1A602A
:100A700004E0034A12688243014B1A607047000089
:100A80004038024029B1064A12680243044B1A60FA
:100A900004E0034A12688243014B1A607047000069
:100AA00020380240F0B50021002200240225002653
:100AB0000223324F3F6807F00C0121B1042905D011
:100AC000082937D105E02E4F076036E02D4F07602B
:100AD00033E02A4F3F1F3F68C7F38056274F3F1F21
:100AE0003F6807F03F036EB1264FB7FBF3F7DFF81F
:100AF0008CC0ACF1040CDCF800C0CCF3881C07FB04
:100B00000CF40CE01E4FB7FBF3F7DFF870C0ACF14C
:100B1000040CDCF800C0CCF3881C07FB0CF4174F66
:100B20003F1F3F68C7F301477F1C7D00B4FBF5F70B
:100B3000076002E0124F076000BF00BF0F4F3F6821
:100B400007F0F0010909104F7A5C0768D740476049
:100B50000A4F3F6807F4E051890A0B4F7A5C4768F7
:100B6000D7408760054F3F6807F46041490B064F47
:100B70007A5C4768D740C760F0BD00000838024083
:100B80000024F40000127A000000002070470000EA
:100B90000CB50020019000903448006840F480308B
:100BA0003249086000BF3148006800F4003000900E
:100BB0000198401C0190009818B90198B0F5A04F19
:100BC000F1D12A48006800F4003010B101200090F3
:100BD00001E0002000900098012846D123484030D1
:100BE000006840F08050214940310860204800688A
:100BF00040F440401E4908601C48083000681B490A
:100C0000083108600846006840F400400860084663
:100C1000006840F4A05008601648091F0860081FCB
:100C2000006840F08070091F086000BF0F4800682E
:100C300000F000700028F9D040F205700E490860FD
:100C40000A480830006820F00300084908310860AD
:100C50000846006840F00200086000BF0348083002
:100C6000006800F00C000828F8D10CBD00380240E4
:100C70000070004008544007003C0240042808D19E
:100C80004FF0E021096941F004014FF0E0221161C9
:100C900007E04FF0E021096921F004014FF0E02264
:100CA0001161704710B51548006840F47000134991
:100CB00008601348006840F00100114908600020F6
:100CC0000F49083108600E4800680E4908400C4979
:100CD00008600D48091D0860081F006820F4802086
:100CE000091F0860002006490C310860FFF750FF1B
:100CF0004FF0006001498039086010BD88ED00E0C8
:100D000000380240FFFFF6FE1030002410B540F21C
:100D100025511D4800F04AF810B31B4800F000F9B7
:100D2000C4B21A48008800F40040C8B917480088C7
:100D300000F4804060B10A2C03D0002013490880E1
:100D400020E01248008840F400401049088019E073
:100D50000D2C06D10D48008840F480400B490880D6
:100D600010E00A480088C0F30D0009490C540748F8
:100D70000088401C0549088008460088C72801DD16
:100D80000020088010BD0000005000401800002026
:100D90002400002021B1828942F40052828104E0C3
:100DA00082894DF6FF731A408281704770B5024602
:100DB000002400230025002040F66A16B14200D12D
:100DC00000BFC1F3421501F01F03012606FA03F329
:100DD000012D02D19689334006E0022D02D1168AF8
:100DE000334001E0968A33400C12012606FA04F4DF
:100DF0001688344013B10CB1012000E0002070BD12
:100E0000F0B50346002400260025002040F66A17AE
:100E1000B94200D100BF1846C1F3421401F01F06C9
:100E2000012707FA06F5012C01D10C3004E0022C51
:100E300001D1103000E014301AB107682F43076069
:100E400002E00768AF430760F0BD00002DE9FF47EF
:100E500005460E460024A14600BFA046B08900B159
:100E600000BF2C8A24F44054F08804432C82AC89BF
:100E700041F20C608443B08831890843718908438A
:100E80000443AC81AC8A24F44074B0890443AC823E
:100E90006846FFF707FE2048854202D01F4885427A
:100EA00002D1DDF80C9001E0DDF80890A88900F48B
:100EB000004040B109EBC90000EB0910316849005E
:100EC000B0FBF1F707E009EBC90000EB091031684E
:100ED0008900B0FBF1F76420B7FBF0F004012009B2
:100EE000642101FB1078A88900F4004040B1322051
:100EF00000EBC800B0FBF1F000F00700044308E08D
:100F0000322000EB08106421B0FBF1F000F00F007C
:100F100004432C81BDE8FF8700100140001401400C
:100F200001468888C0F30800704700BFFEE701460D
:100F300000BF70470246074800EBC200406810B18E
:100F40004FF0FF307047034800EBC20041600120C2
:100F5000F8E70000000100201CB502208DF8040015
:100F600003208DF8050000208DF8060001208DF883
:100F700007004FF4C050009069460748FFF7A9FCEE
:100F800009220B210448FFF7ECFC09220C2102483E
:100F9000FFF7E7FC1CBD0000000002403EB500F07A
:100FA000A0F8FFF7D9FF4448FFF7C2FA6846FFF7F9
:100FB00076FC00208DF806008DF808008DF80700FB
:100FC0008DF809008DF80A0001208DF80B00002033
:100FD0008DF802008DF8030008208DF8040003202E
:100FE0008DF80500ADF8000069463348FFF755FB62
:100FF0003248006840F00100304908600846006847
:1010000020F47C5008600846006840F46060086086
:10101000081D006820F48040091D086027480C3036
:10102000006840F4804025490C31086000202349C5
:101030001431086021481C30006820F001001F496D
:101040001C3108601D484030006800201B494031B9
:101050000860081D00680021184844300160001F26
:101060000068164940310860081D0068091D0860C5
:1010700012481C30006840F0010010491C31086023
:101080000E48006820F001000C490860012202218E
:101090000948FFF7F9FA002407E0094901F834404C
:1010A000002001EBC4014860641CFF2CF5DD00F05A
:1010B00009F801203EBD00000064004000660040C9
:1010C0000001002008B514208DF8000001208DF8E3
:1010D00001008DF802008DF803006846FFF76AFCF6
:1010E00008BD10B501210846FFF7ACFC01214806F8
:1010F000FFF7B8FC10BD000010B50146002200202B
:101100008B7A0A4C238000BF07E001F10B031B5CC4
:10111000074C24F81030431CD8B2044B1B8898426B
:10112000F3DB4FF40043034C238010BD200000206C
:10113000000900201800002010B504466FF00400DC
:10114000FFF79CFDE11704EB5171C1F3C701074A9A
:1011500011701046007800EB4001C1EBC0104FF653
:10116000FF7101EAC0000249088010BD1000002094
:101170001200002000BF054A128802F04002002A37
:10118000F9D0C2B2014B9A80704700000050004075
:10119000FEB0002500BF00BF00244FF4A060FFF7A1
:1011A00045FCA820FFF7C8FF4FF4E13000F078F8C5
:1011B000FFF7F4FE2B491120FFF7BCFE00BF03E050
:1011C000681C01A94855C5B2052DF9DB62208DF8D0
:1011D000040075208DF8050068208DF80600612058
:1011E0008DF807006F208DF808001FA0FFF742F868
:1011F0001EA0FFF73FF800201F49088031E01E487D
:10120000008800F4004000282BD01C48008861288A
:101210000ED1002407E0194830F8141018A0FFF789
:1012200029F8601CC4B2174800888442F3DB15E03B
:1012300015A0FFF71FF800240CE0104830F8141038
:101240000FA0FFF717F80D4830F8140013498880F5
:10125000601CC4B20B4800888442EEDB00200649C3
:101260000880CCE7F91000080D0A0000546573747B
:101270005F63616E0D0A0000180000200009002065
:1012800025630000200000200D0A0D0A52656365E9
:101290006976656420646174613A00000050004022
:1012A00010B588B0044601210420FFF7CBFB0121D3
:1012B0000820FFF7C7FB01210805FFF7D3FB082231
:1012C0000C212B48FFF74DFB082202212948FFF78C
:1012D00048FB4FF48050069002208DF81C008DF8DA
:1012E0001D0000208DF81E0001208DF81F0006A9AA
:1012F0001F48FFF7EEFA0420069002208DF81C002C
:101300008DF81D0000208DF81E0001208DF81F00B3
:1013100006A91848FFF7DDFA02940020ADF80C008A
:10132000ADF80E00ADF81000ADF814000C20ADF8CB
:10133000120002A91048FFF789FD01210E48FFF7AE
:1013400029FD012240F225510B48FFF759FD3520B8
:101350008DF8040003208DF805008DF806000120AB
:101360008DF8070001A8FFF725FB08B010BD0000AD
:1013700000080240000C0240005000404FF0407056
:10138000E1EE100A70470000A813000800000020DA
:1013900024000000C4010008CC1300082400002031
:1013A0003C130000E00100080000000001020304FB
:1013B0000102030406070809000000000000000005
:0C13C00000000000000000000000000021
:040000050800018965
:00000001FF
