:020000040800F2
:1000000040150020310200087B0B0008730B00082C
:10001000770B000839040008F31000080000000006
:10002000000000000000000000000000550D000866
:100030009B0A000800000000090C000849020008A3
:100040004B0200084B0200084B0200084B0200085C
:100050004B0200084B0200084B0200084B0200084C
:100060004B0200084B0200084B0200084B0200083C
:100070004B0200084B0200084B0200084B0200082C
:100080004B0200084B0200084B0200084B0200081C
:100090003D0400084B0200084B0200084B02000818
:1000A0004B0200084B0200084B0200084B020008FC
:1000B0004B0200084B0200084B0200084B020008EC
:1000C0004B0200084B0200084B0200084B020008DC
:1000D0004B0200084B0200084B0200084B020008CC
:1000E0004B0200084B0200084B0200084B020008BC
:1000F0004B0200084B0200084B0200084B020008AC
:100100004B0200084B0200084B0200084B0200089B
:100110004B020008D50E00084B0200084B020008F5
:100120004B0200084B0200084B0200084B0200087B
:100130004B0200084B0200084B0200084B0200086B
:100140004B0200084B0200084B0200084B0200085B
:100150004B0200084B0200084B0200084B0200084B
:100160004B0200084B0200084B0200084B0200083B
:100170004B0200084B0200084B0200084B0200082B
:100180004B0200084B02000800F002F800F041F8B2
:100190000AA090E8000C82448344AAF10107DA45E2
:1001A00001D100F036F8AFF2090EBAE80F0013F0F3
:1001B000010F18BFFB1A43F0010318478415000014
:1001C000A4150000103A24BF78C878C1FAD85207A5
:1001D00024BF30C830C144BF04680C6070470000C1
:1001E0000023002400250026103A28BF78C1FBD840
:1001F000520728BF30C148BF0B607047632900F029
:10020000B080002070471FB501F094FA1FBD10B5F3
:1002100010BD00F0E1F81146FFF7F5FF01F018F905
:1002200000F0FFF803B4FFF7F2FF03BC00F063FF38
:100230000948804709480047FEE7FEE7FEE7FEE77A
:10024000FEE7FEE7FEE7FEE7FEE7FEE704480549B6
:10025000054A064B704700006D0E00088901000832
:10026000400F0020401500204011002040110020C8
:10027000704700000FB4044910B503AA029800F0BB
:100280007DF810BC5DF814FB140000202DE9F0414E
:100290000E460446002020622046E168884730B3BD
:1002A000252805D0D4E901219047206A401CF2E7B7
:1002B000E168204600278847050018D0A5F14100D5
:1002C000192802D820354FF40067324629462046C7
:1002D0002760FFF793FF40B1012804D0F61D26F0F8
:1002E00007060836D8E7361DD6E72846DAE7206A3B
:1002F000BDE8F08170B50C460546012A05D0287886
:10030000800600D5EA69002302E0012305E05B1CBA
:10031000934202D2E05C0028F9D1A869E618C01A1D
:10032000A861286A184428622846AFF3008004E0D8
:10033000D5E9012114F8010B9047B442F8D32846BF
:10034000AFF3008070BD704770477047704710B5BD
:10035000436913B1AFF3008001E0FFF7CBFF012049
:1003600010BD127800F124010A7000224A700122A7
:10037000EDE711684FF0FF32E9E70000074B70B579
:100380000D467B4400F011F80446284600F020F8A2
:1003900010B14FF0FF3070BD204670BDAF100000AF
:1003A00001694A1C02610878704700B58FB0CDE939
:1003B00001310021059105497944CDE90310114629
:1003C0006846FFF763FF0FB000BD0000E5FFFFFFC9
:1003D000007B00F080007047754600F029F8AE46BB
:1003E00005006946534620F00700854618B020B541
:1003F000FFF72CFFBDE820404FF000064FF000074C
:100400004FF000084FF0000B21F00701AC46ACE8BC
:10041000C009ACE8C009ACE8C009ACE8C0098D4629
:1004200070470446AFF300802046FFF7FBFE000054
:1004300000487047E00E002000BFFEE710B5022123
:100440000E4800F091F8B8B10D4A00210B4800F0B9
:10045000AEF90B4800680B4901EBC000406838B1A9
:10046000074800680A4602EBC00041680448884714
:100470000221024800F008F810BD000000640040AE
:10048000E4000020E4020020B1F5007F3AD00FDC48
:10049000202928D006DC01291CD004291DD00829D8
:1004A00040D11DE0402921D0B1F5807F3AD126E02E
:1004B000B1F5004F31D006DCB1F5806F25D0B1F534
:1004C000006F2FD124E0B1F5803F12D0B1F5003F8D
:1004D00028D111E0154A826025E00822C26022E09E
:1004E0001022C2601FE0082202611CE0102202619B
:1004F00019E00822426016E01022426013E0042254
:10050000426010E0042242600DE0042242600AE0F2
:10051000002282610422426005E0002282610422FE
:10052000426000E000BF00BF704700000101010011
:1005300010B504460B48844209D10121480600F059
:1005400085FB00214FF0007000F080FB08E00121E6
:10055000880600F07BFB00214FF0806000F076FB06
:1005600010BD00000064004070B504460D46002632
:1005700060692840002871D0B5F5807F5CD010DC20
:10058000082D35D006DC012D20D0022D24D0042DDD
:1005900072D127E0102D31D0202D35D0402D6BD1D8
:1005A00038E0B5F5004F60D009DCB5F5007F49D0E3
:1005B000B5F5806F4CD0B5F5006F5DD14FE0B5F566
:1005C000803F2DD0B5F5003F56D12FE0A0682D49D2
:1005D00000F05AFA064651E0E068032100F054FAB0
:1005E00006464BE0E068082100F04EFA064645E07A
:1005F000E068102100F048FA06463FE02069032138
:1006000000F042FA064639E02069082100F03CFA81
:10061000064633E02069102100F036FA06462DE048
:100620006068082100F030FA064627E06068102173
:1006300000F02AFA064621E0A069012100F024FA20
:1006400006461BE0A069022100F01EFA064615E0EE
:10065000A069042100F018FA06460FE00FE0A06937
:10066000702100F011FA064608E06068042100F0ED
:100670000BFA064602E0FFE7002600BF00E0002676
:10068000304670BD010101001AB143690B4343615B
:1006900002E043698B434361704730B50246002056
:1006A0000023146824F002041460146844F0010468
:1006B000146000E05B1C546804F001041CB94FF6A0
:1006C000FF74A342F6D1546804F001040CB9002071
:1006D0006CE08C79012C04D1146844F0800414601F
:1006E00003E0146824F080041460CC79012C04D158
:1006F000146844F04004146003E0146824F04004DB
:1007000014600C7A012C04D1146844F020041460A5
:1007100003E0146824F0200414604C7A012C04D106
:10072000146844F01004146003E0146824F010040A
:1007300014608C7A012C04D1146844F0080414600D
:1007400003E0146824F008041460CC7A012C04D16E
:10075000146844F00404146003E0146824F00404F2
:1007600014608C78A407CD7844EA05640D7944EAD6
:1007700005444D7944EA05540D886D1E2C43D4611F
:10078000146824F001041460002300E05B1C54682A
:1007900004F001041CB14FF6FF74A342F6D1546873
:1007A00004F001040CB1002000E0012030BD10B5C0
:1007B00000F5D87303EB01131B6803F004031372F5
:1007C000137A53B900F5D87303EB01131B6840F299
:1007D000FF7404EA5353136009E000F5D87303EB88
:1007E00001131B686FF0604404EAD303536000F503
:1007F000D87303EB01131B6803F00203537200F577
:10080000D87303EB01135B6803F00F03937200F5D9
:10081000D87303EB01135B681B0A82F8FF3100F504
:10082000D87303EB01139B68D37200F5D87303EB05
:1008300001139B681C0A147300F5D87303EB0113B2
:100840009B681C0C547300F5D87303EB01139B6871
:100850001B0E937300F5D87303EB0113DB68D3739E
:1008600000F5D87303EB0113DB681C0A147400F560
:10087000D87303EB0113DB681C0C547400F5D873B8
:1008800003EB0113DB681B0E937421B9C36843F0BB
:100890002003C36003E0036943F02003036110BD3C
:1008A00000218171C171017241728172C1728170C6
:1008B000C170032101710221417101210180704742
:1008C00010B502460020936803F08063B3F1806F97
:1008D00000D110E0936803F00063B3F1006F01D121
:1008E000012008E0936803F08053B3F1805F01D1E9
:1008F000022000E00420042874D002F5C07303EB4A
:1009000000131B6803F0010402F5C07303EB00132E
:100910001C600B7A7BB94B7A0C8843EA445302F58E
:10092000C07404EB00142468234302F5C07404EB84
:100930000014236010E00B7A4C6843EAC4034C7A3D
:10094000234302F5C07404EB00142468234302F52A
:10095000C07404EB001423608B7A03F00F038B72D6
:1009600002F5C07303EB00135B6823F00F0402F57C
:10097000C07303EB00135C6002F5C07303EB00135C
:100980005B688C7A234302F5C07404EB0014636047
:100990008B7B1C064B7B44EA03440B7B44EA03231A
:1009A000CC7A234302F5C07404EB0014A3608B7C63
:1009B0001C064B7C44EA03440B7C44EA0323CC7BB7
:1009C000234302F5C07404EB0014E36002F5C07326
:1009D00003EB00131B6843F0010402F5C07303EB43
:1009E00000131C6010BD000010B50246002321B1A9
:1009F000012907D002290FD109E090681D4C00EAB7
:100A000004030BE090681C4C00EA040306E09068C5
:100A10001A4C00EA040301E0002300BF00BF184C99
:100A2000181BA34216D007DC83B16FF08060184416
:100A300070B1022818D111E0B0F5007F10D0114C30
:100A4000204448B1B0F5003F0ED10BE002230DE089
:100A500000230BE0002309E0002307E0012305E069
:100A6000012303E0012301E0002300BF00BFD8B24F
:100A700010BD000003000004000300080000031084
:100A8000000100080001FFF70246002002EA01030E
:100A90000BB1012000E0002070477047F0B50A4616
:100AA00000210023002400BF3DE0012505FA01F3E9
:100AB000156805EA03049C4234D105684F000326FB
:100AC000BE40B543056015794E00B5400668354314
:100AD00005601579012D02D01579022D16D1856892
:100AE0004F000326BE40B543856055794E00B540A2
:100AF000866835438560456801268E40B54345606C
:100B0000456896798E40B6B235434560C5684F005A
:100B10000326BE40B543C560D5794E00B540C668D2
:100B20003543C560491C1029BFD3F0BDF0B5002383
:100B300000244D07ED0E02FA05F3CE1000F120055A
:100B400055F826504E07F70E0F26BE40B543CF107E
:100B500000F1200646F82750CE1000F1200555F888
:100B6000265045EA0304CE1000F1200545F8264042
:100B7000F0BD00BFFEE700BFFEE7704770B5002183
:100B800000230F22C4781CB3174C246804F4E064DB
:100B9000C4F5E064C4F30721C1F10404E3B20A41DF
:100BA00044789C40E1B28478144021430C07210E24
:100BB0000E4C05786155047804F01F050124AC4003
:100BC00005786D11AD0005F1E025C5F8004109E09B
:100BD000047804F01F050124AC40054D0678761119
:100BE00045F8264070BD00000CED00E000E400E098
:100BF00080E100E002490143024A116070470000B1
:100C00000000FA050CED00E07047000029B1064A2B
:100C100012680243044B1A6004E0034A12688243DC
:100C2000014B1A60704700003038024029B1064A73
:100C300012680243044B1A6004E0034A12688243BC
:100C4000014B1A60704700004038024029B1064A43
:100C500012680243044B1A6004E0034A126882439C
:100C6000014B1A607047000020380240F0B50021A7
:100C700000220024022500260223324F3F6807F09D
:100C80000C0121B1042905D0082937D105E02E4FE8
:100C9000076036E02D4F076033E02A4F3F1F3F6863
:100CA000C7F38056274F3F1F3F6807F03F036EB1E1
:100CB000264FB7FBF3F7DFF88CC0ACF1040CDCF87F
:100CC00000C0CCF3881C07FB0CF40CE01E4FB7FBF4
:100CD000F3F7DFF870C0ACF1040CDCF800C0CCF323
:100CE000881C07FB0CF4174F3F1F3F68C7F30147F1
:100CF0007F1C7D00B4FBF5F7076002E0124F076030
:100D000000BF00BF0F4F3F6807F0F0010909104F07
:100D10007A5C0768D74047600A4F3F6807F4E051A4
:100D2000890A0B4F7A5C4768D7408760054F3F6858
:100D300007F46041490B064F7A5C4768D740C760AB
:100D4000F0BD0000083802400024F40000127A00D0
:100D500000000020704700000CB5002001900090BA
:100D60003448006840F480303249086000BF3148A0
:100D7000006800F4003000900198401C0190009839
:100D800018B90198B0F5A04FF1D12A48006800F4D5
:100D9000003010B10120009001E000200090009888
:100DA000012846D123484030006840F08050214956
:100DB000403108602048006840F440401E49086007
:100DC0001C48083000681B49083108600846006864
:100DD00040F4004008600846006840F4A0500860F5
:100DE0001648091F0860081F006840F08070091F3E
:100DF000086000BF0F48006800F000700028F9D0BC
:100E000040F205700E4908600A480830006820F07A
:100E100003000849083108600846006840F00200F5
:100E2000086000BF03480830006800F00C00082884
:100E3000F8D10CBD00380240007000400854400753
:100E4000003C0240042808D14FF0E021096941F03C
:100E500004014FF0E022116107E04FF0E021096941
:100E600021F004014FF0E0221161704710B51548E0
:100E7000006840F47000134908601348006840F0AF
:100E800001001149086000200F49083108600E4830
:100E900000680E4908400C4908600D48091D0860AB
:100EA000081F006820F48020091F08600020064900
:100EB0000C310860FFF750FF4FF0006001498039A6
:100EC000086010BD88ED00E000380240FFFFF6FE2C
:100ED0001030002410B540F225511D4800F04AF8AA
:100EE00010B31B4800F000F9C4B21A48008800F49F
:100EF0000040C8B91748008800F4804060B10A2C4F
:100F000003D000201349088020E01248008840F4F4
:100F100000401049088019E00D2C06D10D480088CA
:100F200040F480400B49088010E00A480088C0F374
:100F30000D0009490C5407480088401C05490880E9
:100F400008460088C72801DD0020088010BD000089
:100F500000500040180000201C00002021B18289B0
:100F600042F40052828104E082894DF6FF731A40F8
:100F70008281704770B502460024002300250020BE
:100F800040F66A16B14200D100BFC1F3421501F02C
:100F90001F03012606FA03F3012D02D1968933407F
:100FA00006E0022D02D1168A334001E0968A3340D2
:100FB0000C12012606FA04F41688344013B10CB161
:100FC000012000E0002070BDF0B50346002400269B
:100FD0000025002040F66A17B94200D100BF18462C
:100FE000C1F3421401F01F06012707FA06F5012C90
:100FF00001D10C3004E0022C01D1103000E014309B
:101000001AB107682F43076002E00768AF43076023
:10101000F0BD00002DE9FF4705460E460024A1461D
:1010200000BFA046B08900B100BF2C8A24F4405410
:10103000F08804432C82AC8941F20C608443B08870
:1010400031890843718908430443AC81AC8A24F494
:101050004074B0890443AC826846FFF707FE20481D
:10106000854202D01F48854202D1DDF80C9001E094
:10107000DDF80890A88900F4004040B109EBC900F0
:1010800000EB091031684900B0FBF1F707E009EB0C
:10109000C90000EB091031688900B0FBF1F764204A
:1010A000B7FBF0F004012009642101FB1078A88946
:1010B00000F4004040B1322000EBC800B0FBF1F07A
:1010C00000F00700044308E0322000EB0810642120
:1010D000B0FBF1F000F00F0004432C81BDE8FF8766
:1010E000001001400014014001468888C0F3080048
:1010F000704700BFFEE7014600BF70470246074841
:1011000000EBC200406810B14FF0FF307047034859
:1011100000EBC20041600120F8E70000E40200207B
:101120001CB502208DF8040003208DF80500002076
:101130008DF8060001208DF807004FF4C050009094
:1011400069460748FFF7AAFC09220B210448FFF76C
:10115000EDFC09220C210248FFF7E8FC1CBD000051
:10116000000002403EB500F0A0F8FFF7D9FF444868
:10117000FFF7DEF96846FFF793FB00208DF80600C5
:101180008DF808008DF807008DF809008DF80A0029
:1011900001208DF80B0000208DF802008DF803006F
:1011A00008208DF8040003208DF80500ADF800003C
:1011B00069463348FFF771FA3248006840F0010091
:1011C000304908600846006820F47C5008600846F2
:1011D000006840F460600860081D006820F48040EA
:1011E000091D086027480C30006840F480402549FC
:1011F0000C310860002023491431086021481C305C
:10120000006820F001001F491C3108601D48403073
:10121000006800201B4940310860081D006800215B
:10122000184844300160001F0068164940310860CA
:10123000081D0068091D086012481C30006840F055
:10124000010010491C3108600E48006820F00100C0
:101250000C490860012202210948FFF715FA002411
:1012600007E0094901F83440002001EBC40148605F
:10127000641CFF2CF5DD00F009F801203EBD0000E4
:101280000064004000660040E402002008B514201D
:101290008DF8000001208DF801008DF802008DF816
:1012A00003006846FFF76AFC08BD10B50121084637
:1012B000FFF7ACFC01214806FFF7B8FC10BD0000A9
:1012C00030B50146002200208A7A02F13003094C31
:1012D000238000BF07E001F10B031C5C054D431C9C
:1012E00025F81340D8B29042F5DB4FF40043024C8E
:1012F000238030BDE40A0020180000202DE9F041D1
:10130000ADF5007D0746884615460024009700206D
:101310008DF808008DF809008DF80A5000BF06E02E
:1013200018F804100DF10B000155601C84B2AC429A
:10133000F6DB69460E48FFF7C3FA0646002401E0D3
:10134000601C84B231460A48FFF74EFB18B940F6DC
:10135000FF708442F4DB40F6FF70844205DB4FF0FF
:10136000FF300DF5007DBDE8F0810120F9E70000B8
:101370000064004010B504466FF00400FFF762FD02
:10138000E11704EB5171C1F3C701074A1170104610
:10139000007800EB4001C1EBC0104FF6FF7101EA8D
:1013A000C0000249088010BD10000020120000207B
:1013B00070B504464FF4077094FBF0F0C6B24FF4DA
:1013C000077094FBF0F100FB114085B205E04FF48B
:1013D000077000F009F8701EC6B2002EF7D115B1E3
:1013E000284600F001F870BD0146114A12884A43B0
:1013F0004FF0E0235A6100229A611A46126942F0C6
:1014000001021A6100BF4FF0E022106900F00102F2
:101410001AB100F48032002AF5D04FF0E0221269B0
:1014200022F001024FF0E0231A6100229A61704716
:101430001200002000BF054A128802F04002002A74
:10144000F9D0C2B2014B9A807047000000500040B2
:10145000ADF57A7D00260027B04600240525280238
:10146000FFF7C8FBA820FFF785FF4FF4E13000F03D
:10147000F3F8FFF777FE5D491220FFF73FFE00BF4C
:1014800003E0701C7DA98855C6B2052EF9DB6E20DD
:101490008DF8F40169208DF8F50168208DF8F601CA
:1014A00061208DF8F7016F208DF8F80150A0FEF74C
:1014B000E1FE50A0FEF7DEFE00205149088094E0D6
:1014C0004F48008800F4004000282BD04D480068A9
:1014D00020F002004B4908604B48008830381FFA62
:1014E00080F84AA0FEF7C6FE01240CE0464830F81A
:1014F00014004B498880444830F8141049A0FEF786
:10150000B9FE601CC4B24445F0DD39A0FEF7B2FE5E
:1015100000203B4908803B48006840F00200394900
:10152000086062E0642097FBF0F100FB1170002876
:1015300056D1082D12DCEAB27DA91120FFF7DEFE9C
:1015400040B139A0FEF796FE61207DA94855681C80
:1015500085B245E03AA0FEF78DFE41E008227DA964
:101560001120FFF7CBFE18B12FA0FEF783FE02E09B
:1015700033A0FEF77FFE002404E061200DF8040094
:10158000601CC4B2082CF8DBA5F10800C4B223E04B
:10159000082C0DDB082269461120FFF7AFFE18B1B9
:1015A00021A0FEF767FE10E025A0FEF763FE0CE029
:1015B000224669461120FFF7A1FE18B11AA0FEF7D6
:1015C00059FE02E01EA0FEF755FE082C03DBA4F135
:1015D0000800C4B200E00024002CD9DC681C85B2ED
:1015E000781C87B20A20FFF7E3FE69E7C112000802
:1015F0000D0A0000546573745F63616E0D0A00008C
:101600001800002014640040E40A00200D0A52650E
:1016100063656976656420646174613A0000000066
:1016200000500040256300000D0A53756363657325
:101630007320746F2073656E64210D0A0000000032
:101640000D0A4661696C75726520746F2073656E52
:10165000642E2E2E0D0A000010B588B0044601211C
:101660000420FFF7D3FA01210820FFF7CFFA012168
:101670000805FFF7DBFA08220C212B48FFF756FA82
:10168000082202212948FFF751FA4FF480500690B2
:1016900002208DF81C008DF81D0000208DF81E0022
:1016A00001208DF81F0006A91F48FFF7F7F9042055
:1016B000069002208DF81C008DF81D0000208DF88A
:1016C0001E0001208DF81F0006A91848FFF7E6F953
:1016D00002940020ADF80C00ADF80E00ADF810003B
:1016E000ADF814000C20ADF8120002A91048FFF765
:1016F00091FC01210E48FFF731FC012240F22551F7
:101700000B48FFF761FC35208DF8040003208DF8AD
:1017100005008DF8060001208DF8070001A8FFF7ED
:101720002DFA08B010BD000000080240000C024075
:10173000005000404FF04070E1EE100A704700008A
:1017400060170008000000201C000000C401000811
:101750007C1700081C00002024150000E001000890
:101760000000000001020304010203040607080947
:0C1770000000000000000000000000006D
:040000050800018965
:00000001FF
