:020000040800F2
:100000004807002031020008C9050008C1050008A2
:10001000C5050008E5040008270D000800000000E1
:10002000000000000000000000000000850700083C
:10003000E904000800000000590600084902000811
:100040004B0200084B0200084B0200084B0200085C
:100050004B0200084B0200084B0200084B0200084C
:100060004B0200084B0200084B0200084B0200083C
:100070004B0200084B0200084B0200084B0200082C
:100080004B0200084B0200084B0200084B0200081C
:100090004B0200084B0200084B0200084B0200080C
:1000A0004B0200084B0200084B0200084B020008FC
:1000B0004B0200084B0200084B0200084B020008EC
:1000C0004B0200084B0200084B0200084B020008DC
:1000D0004B0200084B0200084B0200084B020008CC
:1000E0004B0200084B0200084B0200084B020008BC
:1000F0004B0200084B0200084B0200084B020008AC
:100100004B0200084B0200084B0200084B0200089B
:100110004B020008F10A00084B0200084B020008DD
:100120004B0200084B0200084B0200084B0200087B
:100130004B0200084B0200084B0200084B0200086B
:100140004B0200084B0200084B0200084B0200085B
:100150004B0200084B0200084B0200084B0200084B
:100160004B0200084B0200084B0200084B0200083B
:100170004B0200084B0200084B0200084B0200082B
:100180004B0200084B02000800F002F800F041F8B2
:100190000AA090E8000C82448344AAF10107DA45E2
:1001A00001D100F036F8AFF2090EBAE80F0013F0F3
:1001B000010F18BFFB1A43F001031847FC1400009D
:1001C0001C150000103A24BF78C878C1FAD852072D
:1001D00024BF30C830C144BF04680C6070470000C1
:1001E0000023002400250026103A28BF78C1FBD840
:1001F000520728BF30C148BF0B607047642900F028
:100200007980002070471FB501F050FA1FBD10B56E
:1002100010BD00F037F91146FFF7F5FF00F0B4FD0F
:1002200000F055F903B4FFF7F2FF03BC00F07DFDC9
:100230000948804709480047FEE7FEE7FEE7FEE77A
:10024000FEE7FEE7FEE7FEE7FEE7FEE704480549B6
:10025000054A064B704700009D0800088901000808
:1002600048010020480700204803002048030020E0
:10027000704700000FB4044910B503AA029800F0BB
:10028000D3F810BC5DF814FB140000202DE9F041F8
:100290000E460446002020622046E168884730B3BD
:1002A000252805D0D4E901219047206A401CF2E7B7
:1002B000E168204600278847050018D0A5F14100D5
:1002C000192802D820354FF40067324629462046C7
:1002D0002760FFF793FF40B1012804D0F61D26F0F8
:1002E00007060836D8E7361DD6E72846DAE7206A3B
:1002F000BDE8F0812DE9F04106460024106875291B
:10030000314616A510D0AFF30080002802DA404233
:1003100013A507E031688A0701D512A502E0490755
:1003200004D511A5012401E0AFF3008000210A22C9
:1003300006F1240709E0B0FBF2FCB0FBF2F302FB8C
:100340001C00303078541846491C0028F3D123464D
:100350002A463046BDE8F04100F00CB8000000002D
:100360002D0000002B0000002000000070477047A7
:10037000704770472DE9F0470D469946924604466E
:1003800000F124080168880604D5E06921F0100115
:10039000216000E00120A84201DD471B00E00027AA
:1003A000A1697A1902EB0900081AA0612078C00639
:1003B00002D42046AFF30080002608E0D4E90121F2
:1003C0001AF806009047206A401C761C20624E45B1
:1003D000F4DB2078C0060AD52046AFF3008006E0A3
:1003E000D4E9012130209047206A401C2062381E49
:1003F000A7F10107F4DC07E0D4E9012118F80500B2
:100400009047206A401C2062281EA5F10105F3DCFC
:100410002046AFF300802078000602D50220BDE818
:10042000F0870120FBE70000074B70B50D467B44C9
:1004300000F011F80446284600F020F810B14FF003
:10044000FF3070BD204670BD3B09000001694A1CA9
:1004500002610878704700B58FB0CDE90131002105
:10046000059105497944CDE9031011466846FFF727
:100470000DFF0FB000BD0000E5FFFFFF007B00F0A7
:1004800080007047754600F029F8AE4605006946C1
:10049000534620F00700854618B020B5FFF7D6FE7A
:1004A000BDE820404FF000064FF000074FF0000875
:1004B0004FF0000B21F00701AC46ACE8C009ACE8F6
:1004C000C009ACE8C009ACE8C0098D4670470446D5
:1004D000AFF300802046FFF7A5FE000000487047FC
:1004E000E400002000BFFEE77047F0B50A46002197
:1004F0000023002400BF3DE0012505FA01F3156843
:1005000005EA03049C4234D105684F000326BE402F
:10051000B543056015794E00B54006683543056062
:100520001579012D02D01579022D16D185684F005D
:100530000326BE40B543856055794E00B5408668B8
:1005400035438560456801268E40B5434560456862
:1005500096798E40B6B235434560C5684F00032694
:10056000BE40B543C560D5794E00B540C668354339
:10057000C560491C1029BFD3F0BDF0B5002300248D
:100580004D07ED0E02FA05F3CE1000F1200555F8E7
:1005900026504E07F70E0F26BE40B543CF1000F190
:1005A000200646F82750CE1000F1200555F82650B9
:1005B00045EA0304CE1000F1200545F82640F0BDC1
:1005C00000BFFEE700BFFEE77047000070B50021E6
:1005D00000230F22C4781CB3174C246804F4E06491
:1005E000C4F5E064C4F30721C1F10404E3B20A4195
:1005F00044789C40E1B28478144021430C07210EDA
:100600000E4C05786155047804F01F050124AC40B8
:1006100005786D11AD0005F1E025C5F8004109E050
:10062000047804F01F050124AC40054D06787611CE
:1006300045F8264070BD00000CED00E000E400E04D
:1006400080E100E002490143024A11607047000066
:100650000000FA050CED00E07047000029B1064AE1
:1006600012680243044B1A6004E0034A1268824392
:10067000014B1A60704700003038024029B1064A29
:1006800012680243044B1A6004E0034A1268824372
:10069000014B1A607047000040380240F0B500215D
:1006A00000220024022500260223324F3F6807F073
:1006B0000C0121B1042905D0082937D105E02E4FBE
:1006C000076036E02D4F076033E02A4F3F1F3F6839
:1006D000C7F38056274F3F1F3F6807F03F036EB1B7
:1006E000264FB7FBF3F7DFF88CC0ACF1040CDCF855
:1006F00000C0CCF3881C07FB0CF40CE01E4FB7FBCA
:10070000F3F7DFF870C0ACF1040CDCF800C0CCF3F8
:10071000881C07FB0CF4174F3F1F3F68C7F30147C6
:100720007F1C7D00B4FBF5F7076002E0124F076005
:1007300000BF00BF0F4F3F6807F0F0010909104FDD
:100740007A5C0768D74047600A4F3F6807F4E0517A
:10075000890A0B4F7A5C4768D7408760054F3F682E
:1007600007F46041490B064F7A5C4768D740C76081
:10077000F0BD0000083802400024F40000127A00A6
:1007800000000020704700000CB500200190009090
:100790003448006840F480303249086000BF314876
:1007A000006800F4003000900198401C019000980F
:1007B00018B90198B0F5A04FF1D12A48006800F4AB
:1007C000003010B10120009001E00020009000985E
:1007D000012846D123484030006840F0805021492C
:1007E000403108602048006840F440401E490860DD
:1007F0001C48083000681B4908310860084600683A
:1008000040F4004008600846006840F4A0500860CA
:100810001648091F0860081F006840F08070091F13
:10082000086000BF0F48006800F000700028F9D091
:1008300040F205700E4908600A480830006820F050
:1008400003000849083108600846006840F00200CB
:10085000086000BF03480830006800F00C0008285A
:10086000F8D10CBD00380240007000400854400729
:10087000003C0240042808D14FF0E021096941F012
:1008800004014FF0E022116107E04FF0E021096917
:1008900021F004014FF0E0221161704710B51548B6
:1008A000006840F47000134908601348006840F085
:1008B00001001149086000200F49083108600E4806
:1008C00000680E4908400C4908600D48091D086081
:1008D000081F006820F48020091F086000200649D6
:1008E0000C310860FFF750FF4FF00060014980397C
:1008F000086010BD88ED00E000380240FFFFF6FE02
:100900001030002430B58BB004460D460121042080
:10091000FFF7B4FE01210220FFF7A0FE0222092109
:100920001E48FFF72AFE4FF40070099002208DF850
:10093000280003208DF8290000208DF82A000120CE
:100940008DF82B0009A91548FFF7CFFDA8B2ADF827
:1009500018000020ADF81A000794ADF8200006A991
:100960000F4800F083F86020ADF804000120ADF8D6
:1009700006000220ADF8100001A9094800F02AF88D
:100980000821074800F062F80121054800F00AF844
:100990000121034800F012F80BB030BD0004024002
:1009A0000008004021B1028842F08002028004E089
:1009B00002884FF67F731A400280704721B1028887
:1009C00042F00102028004E002884FF6FE731A40F2
:1009D0000280704770B5002200230024058C4EF67B
:1009E000FF7635400584038C8488828B48F6FF753A
:1009F0002A404FF6FF452A400D884FF6FF7606EA5B
:100A000005252A434DF6FF752B408D8906EA0535ED
:100A10002B434D8806EA05352B430A4DA84202D0E8
:100A2000094DA84208D14BF6FF752C400D8A4FF6B0
:100A3000FF7606EA85152C43848082838D680564E1
:100A4000038470BD00000140000401400A460021FB
:100A5000818B4FF2FF7319404FF6FF7303EA0223B5
:100A600019438183704701647047000000220288A7
:100A7000184B98420ED0184B98420BD0B0F1804FD3
:100A800008D0164B984205D0154B984202D0154B12
:100A9000984204D14FF68F731A404B881A43124B79
:100AA000984207D0114B984204D04FF6FF431A40AA
:100AB0000B891A4302804B68C3620B880385054B80
:100AC000984202D0044B984201D18B7A03860123CD
:100AD0008382704700000140000401400004004090
:100AE00000080040000C00400010004000140040CE
:100AF00010B540F225511D4800F057F810B31B48BF
:100B000000F00CF9C4B21A48008800F40040C8B9DB
:100B10001748008800F4804060B10A2C03D0002000
:100B20001349088020E01248008840F40040104932
:100B3000088019E00D2C06D10D48008840F4804053
:100B40000B49088010E00A480088C0F30D000949ED
:100B50000C5407480088401C054908800846008856
:100B6000C72801DD0020088010BD000000500040B3
:100B7000180000201C00002021B1828942F400529C
:100B8000828104E082894DF6FF731A4082817047AA
:100B900002460020B1F5007F00D100BF13880B4052
:100BA0000BB1012000E00020704770B50246002420
:100BB00000230025002040F66A16B14200D100BF94
:100BC000C1F3421501F01F03012606FA03F3012DBC
:100BD00002D19689334006E0022D02D1168A3340B5
:100BE00001E0968A33400C12012606FA04F41688B6
:100BF000344013B10CB1012000E0002070BDF0B50D
:100C00000346002400260025002040F66A17B9425A
:100C100000D100BF1846C1F3421401F01F0601279E
:100C200007FA06F5012C01D10C3004E0022C01D1A9
:100C3000103000E014301AB107682F43076002E05B
:100C40000768AF430760F0BD2DE9FF4705460E4634
:100C50000024A14600BFA046B08900B100BF2C8A85
:100C600024F44054F08804432C82AC8941F20C6097
:100C70008443B08831890843718908430443AC81B7
:100C8000AC8A24F44074B0890443AC826846FFF710
:100C900005FD2048854202D01F48854202D1DDF87B
:100CA0000C9001E0DDF80890A88900F4004040B104
:100CB00009EBC90000EB091031684900B0FBF1F7FE
:100CC00007E009EBC90000EB091031688900B0FBAF
:100CD000F1F76420B7FBF0F004012009642101FB67
:100CE0001078A88900F4004040B1322000EBC80021
:100CF000B0FBF1F000F00700044308E0322000EB05
:100D000008106421B0FBF1F000F00F0004432C81C7
:100D1000BDE8FF87001001400014014001468888AB
:100D2000C0F30800704700BFFEE7014600BF7047F0
:100D300010B504466FF00400FFF79CFDE11704EBCB
:100D40005171C1F3C701074A11701046007800EBDA
:100D50004001C1EBC0104FF6FF7101EAC00002492B
:100D6000088010BD100000201200002000BF054ABE
:100D7000128802F04002002AF9D0C2B2014B9A80D8
:100D800070470000005000402DED0A8B4FF0000826
:100D900064274FF4FA660024A14600254FF4A060B2
:100DA000FFF750FCA820FFF7C3FF4FF4E13000F03D
:100DB00033F9532140F2F310FFF7A4FD3946684898
:100DC000FFF751FE67A0FFF755FA68A0FFF752FA48
:100DD000002071490880C1E06F48008800F400409D
:100DE0000028F8D0012D44D16CA0FFF743FA6A48DF
:100DF0000088C0F30D080026002414E06948005D57
:100E0000694988806748005D303806EB860100EB51
:100E1000410086B200BF6448008800F0400000280E
:100E2000F9D0601CC4B24445E8DB31465FA0FFF74F
:100E300021FA322ECFDB44F620608642CBDC4848D4
:100E40002C3000681FFA80F95D4890FBF6F04449A9
:100E50002C31086042484030006809684843B0FBC4
:100E6000F9F03F4940310860002500204A490880D8
:100E700074E0022D50D153A0FFF7FCF946480088DA
:100E8000C0F30D080027002414E04648005D4649E1
:100E900088804448005D303807EB870100EB410053
:100EA00087B200BF4048008800F040000028F9D019
:100EB000601CC4B24445E8DB39463CA0FFF7DAF9D0
:100EC00027492C31086800F0EAF941EC190B384643
:100ED00000F0E5F941EC1C0B9FED3C0B53EC102BA3
:100EE00000F0F0F941EC1B0B9FED3A0B53EC102B8B
:100EF00000F0E6FA41EC1A0B53EC192B00F0E2F982
:100F000041EC180B00F09EF91549403108600025AE
:100F100000202149088021E022480078303885B23D
:100F200000BF40212048FFF733FE0128F9D1012DF1
:100F300006D0022D04D029A0FFF79CF900250AE075
:100F4000012D03D12AA0FFF795F904E0022D02D16B
:100F50002CA0FFF78FF900200F4908803CE7000024
:100F6000000800402020200A000000000D0A312D5A
:100F70002D65646974204672657175656E637920AC
:100F800020322D2D6564697420447574792043796D
:100F9000636C650D0A000000180000200D0A310D79
:100FA0000A0000001C000020005000400D0A596F8C
:100FB00075722073657474696E673A25640D0A0052
:100FC00040420F000D0A320D0A0000007B14AE47AC
:100FD000E17A843F000000000000F03F0D0A496EF6
:100FE00076616C69642056616C7565210D0A00009C
:100FF0000D0A546865204672657175656E63793AAD
:101000000D0A00000D0A5468652044757479205259
:101010006174696F3A0D0A0010B588B00446012169
:101020000420FFF71BFB01210820FFF717FB01211C
:101030000805FFF723FB08220C212B48FFF79DFA38
:10104000082202212948FFF798FA4FF480500690B1
:1010500002208DF81C008DF81D0000208DF81E0068
:1010600001208DF81F0006A91F48FFF73EFA042053
:10107000069002208DF81C008DF81D0000208DF8D0
:101080001E0001208DF81F0006A91848FFF72DFA51
:1010900002940020ADF80C00ADF80E00ADF8100081
:1010A000ADF814000C20ADF8120002A91048FFF7AB
:1010B000CBFD01210E48FFF75FFD012240F22551D3
:1010C0000B48FFF79CFD35208DF8040003208DF8B8
:1010D00005008DF8060001208DF8070001A8FFF734
:1010E00075FA08B010BD000000080240000C024074
:1010F0000050004010B591EA030F48BF83F0004351
:1011000000F1F281841A71EB030C05D2121943EB42
:101110000C03001B61EB0C01DFF824E14FEA1154D2
:10112000A4EB135C1EEA430F18BF9EEA445F73D022
:1011300023EA0E03DCF1200E21EA045143F480136C
:1011400032D322FA0CFE10EB0E0023FA0CFE41EB18
:101150000E01CCF1200E03FA0EFE10EB0E0051F141
:101160000001B1F5801FCCF1200E32D201EB045109
:1011700012FA0EF2BDE8104058BF7047401C38BF4D
:101180005FEA420218BF7047002814BF20F0010038
:1011900041F100014FEA410313F5001F38BF7047CA
:1011A000A1F1C04100F086B9012A43EB0302ACF182
:1011B000200CDCF11F0E32BF4FF0000E23FA0CF3AF
:1011C00010EB030041EB0451B4EB115FD0D0A1EB65
:1011D000045101F5801149085FEA300001EB045128
:1011E0000ED350F1000038BF12FA0EFE08D1BDE850
:1011F0001040C9E7401C38BF5FEA4202CAD1C3E7CA
:10120000BDE810404FEA410313F5001F38BF704797
:10121000A1F1C04100F04EB99EEA445F08D011EA46
:101220005E0FBDE8104004BF01F000410020704790
:10123000BDE8104070B500F0EFF800BF64FBBE3EA3
:101240000000E0FF4FEA1153A3F58063D3F11E03C2
:10125000A8BFD3F1200C08DB4FF0004242EAC122C4
:1012600052EA505232FA03F0704709420BD4102B65
:10127000C4BF0020704703F5787CBCF1FF3F05D068
:101280004FF0FF3070474FF00000704770B500F02E
:10129000C3F800BF4992248000207047F0E7B0FAFD
:1012A00080F310FA03F10AD0C3F11D0303F5806344
:1012B0004FEA41504FEA035202EBD12170474FF001
:1012C00000007047DFF848C170B51CEA111E1EBF50
:1012D0001CEA13159EEA0C0F95EA0C0F00F06F80C4
:1012E00081EA030423EA4C134EEAD47E21EA4C112E
:1012F00041F4801143F48013AE44A1FB024CA0FBE7
:101300000365AEF17F7E361955EB0C05A1FB034C4E
:101310004CF10003A0FB021C16EB0C06654153F1D7
:101320000003094218BF46F0010613F4007F0BD1F9
:101330004FEA03314FEA0530340341EA155140EAE0
:1013400016506FF003020AE04FEAC3214FEAC520AE
:10135000F40241EA555140EA56506FF0020202EBA6
:101360002E4201EB025585EACE710AD05FEA440CA9
:1013700018BF24F0004450F1000041F1000120EAC0
:10138000D47040F2FE7C624500D270BDA84214BF0A
:101390004FF080444FF04044002E08BF0024BEF1BF
:1013A000806FA8BFA1F1C041BDE8704080F282808B
:1013B0004FF0000001F1C04101F0004170479EEA8A
:1013C0000C0F0CEA131518BF95EA0C0F06D04FF05E
:1013D000000081EA030E0EF0004170BD00F01CF821
:1013E0008900013E00F007B800F009B84FEA430C4D
:1013F0005FEA5C5C08D081EA030100F05BB84FEA69
:10140000410C5FEA5C5CF6D14FF000000149704787
:101410000000FF070000F87F0EF1020E2EF0030E11
:101420005EF8046B364205D4012A43EB030515F53B
:10143000001F12D8012841EB010C1CF5001F0CD82D
:101440000ED14FEAD17C15F5001F0CEB4C0C0CF1C2
:10145000020C08BF4CEBD37C04E04FF0080C01E019
:101460004FEAD37C0CEB4C0526FA05F606F007068E
:10147000B6F1040C06D20EEB860CBDE870404CF0C1
:10148000010C6047DFE80CF0090B02024FF000414D
:101490004FF00000A1F5002170BD1946104601284B
:1014A00051EB010418BFD4F5001484BF002001F0F3
:1014B000004170BD0808A0F500114FEA31017047E6
:1014C00091EA030F10B581F000413FF51BAE83F0A8
:1014D000004300F009B8000010B591EA030F48BFBF
:1014E00083F000433FF50EAE841A71EB030C07D274
:1014F00012198CF0004C43EB0C03001B61EB0C0148
:10150000DFF8A4E14FEA1154A4EB135C1EEA430F89
:1015100018BF9EEA445F00F0B08023EA6E03524297
:1015200021EA0451C3EB6E0338BF5B1EDCF1200ED1
:1015300025D322FA0CFE10EB0E0043FA0CFE41EB11
:101540000E01CCF1200E03FA0EFE10EB0E0051F14D
:101550000001CCF1200E29D412FA0EF201EB045155
:10156000BDE8104058BF7047401C1CBFB2F1004F8F
:10157000704700280CBF491C20F00100704712EB97
:10158000020E43EB030218BF4FF0010E4EEA420277
:10159000ACF1200CDCF11E0E54D943FA0CFE10EB1A
:1015A0000E0051F1FF31CCF11E0ED5D50EF1010E1A
:1015B00012FA0EFE404141EB010101EB445C5FEA8F
:1015C0005C5C10D910EBDE7001EB045138BFBEF14A
:1015D000004FBDE8104018BF704700280CBF491CE1
:1015E00020F00100704730D24FEAD42C11F50011E1
:1015F00024F400641BD0B1FA81F20B3AA41AA41EA1
:10160000D2F12003914030FA03F31943904001EBEB
:10161000CC71002C01EB0451BDE81040A8BF70470D
:1016200001F1C0414FF0000001F000417047B0FAF5
:1016300080F310FA03F100D110BDE41A173C4805FD
:10164000C90AE4E701EB045110BD491001EB045154
:10165000BDE810404FEA300002E04FF00001704753
:101660004A0008BF0042F8D0B2F5001F28BF7047FB
:1016700001F000414FF0000070479EEA445F07D040
:1016800011EA5E0FBDE8104004BF00210020704742
:10169000BDE8104070B5FFF7BFFE00BF40DFF63E6B
:1016A00083F00041104670470000E0FF4FF04070AB
:1016B000E1EE100A70470000D81600080000002074
:1016C0001C000000C4010008F41600081C000020E3
:1016D0002C070000E00100080000000001020304E4
:1016E00001020304060708090000000000000000D2
:0416F00000000000F6
:040000050800018965
:00000001FF
